:100CA00002100001021400000208000A020C0001F8
:0C0CB00002120003020E0002020A000102
:070CF3007F01120D0B7F02CF
:100CFA00EF14FFF87401088002C333D8FCF452B031
:010D0A0022C6
:100D5900EF2403FFF87401088002C333D8FCF4526E
:020D6900B022B6
:0A0CBD00120CFA7F01120D337F02C2
:100CC700EF2405FFF87401088002C333D8FCF452FF
:020CD700B02249
:0A0CD900120D8F7F01120D467F02FD
:100CE300EF14FFF87401088002C333D8FC42B0222A
:100D8F00EF2403FFF87401088002C333D8FC42B08C
:010D9F002231
:100DA000EF2405FFF87401088002C333D8FC42B079
:010DB0002220
:100D0B00EF25E024FEFFF87401088002C333D8FC02
:040D1B00F4528022EC
:100D3300EF25E014FFF87401088002C333D8FCF4F4
:030D4300528022B9
:100D4600EF25E024FEFFF87401088002C333D8FCC7
:030D5600428022B6
:100D6B00EF25E014FFF87401088002C333D8FC426E
:020D7B008022D4
:100DB100EF2403FFF87401088002C333D8FC62B04A
:010DC100220F
:100D7D00EF25E014FFF87401088002C333D8FC623C
:020D8D008022C2
:100C7F0075A883758911758801758CFC758A18D2D2
:100C8F008C120B6BE5116401451070F8120DF68094
:010C9F00F361
:03000300020A9E50
:100A9E00C0E0C0F0C083C082C0D075D000C000C01E
:100AAE0001C002C003C004C005C006C007E5116442
:100ABE000145107011120B16751400751500751086
:100ACE000075110280277F017E00120D8F7F0212AA
:100ADE000D8F75140075150075080075090A750CD3
:100AEE0000750D01751000751101120B6BD007D03A
:100AFE0006D005D004D003D002D001D000D0D0D083
:080B0E0082D083D0F0D0E03268
:03000B00020800E8
:10080000C0E0C0D075D000C000C006C007C28C05D3
:1008100015E51570020514E5116401451060030229
:1008200008AEE515B4F439E514B40134D3E5099400
:1008300006E508648094805027C3E5099403E50821
:1008400064809480401AE50D6401450C70047F01BA
:10085000800AE50D6403450C70067F02FE120D331D
:10086000E51564E87004E5146403705EF514F5158D
:10087000E509150970021508D3E5099406E5086431
:100880008094805045C3E5099403E5086480948012
:100890004038E50D6401450C70047F01800AE50DC8
:1008A0006403450C70247F02FE120D6B801CE5155D
:1008B000B4F417E514B401127F017E00120DB17F6C
:1008C00002120DB1751400751500758CFC758A182F
:0D08D000D28CD007D006D000D0D0D0E032BE
:040BB900AF09AE08CA
:040BBD00AB07AA06D2
:100BC1007C007D0A120A138F82AE02AF037C007D86
:100BD1000A120A138C168D17858290439010120CFD
:100BE100275390EF851790439020120C275390DFE5
:010BF10022E1
:040BF200AB07AA069D
:100BF6007C007D0A120A138F82AE02AF037C007D51
:100C06000A120A138C168D178582A043A010120CA7
:100C16002753A0EF8517A043A020120C2753A0DF6F
:010C260022AB
:040C27007F0A7E00C2
:100C2B007C007D0A120A138E1A8F1BE4F518F51936
:100C3B00C3E519951BE51A6480F8E5186480985094
:0E0C4B000D120DC20519E51970E6051880E2BC
:010C59002278
:100DC200758DD8758BF0D28E308FFDC28EC28F2278
:100B6B00E50D6401450C70087F01FE120CBD803849
:100B7B00E50D6402450C70127F01FE120CFA7F0129
:100B8B00120D0B7F02120D59801EE50D6403450CEF
:100B9B007F01700CFE120CC7120CF37F02020D3397
:0E0BAB007E00120D59120CF37F02120D0B2268
:100B1600E50D6401450C70127F01FE120CE37F01A6
:100B2600120D6B7F02120DA08035E50D6402450C97
:100B360070127F01FE120CE37F01120D467F021236
:100B46000D8F801BE50D6403450C7F01700CFE12B2
:100B56000DA0120CDC7F02020D6B7E00120CD97FF9
:050B660002120D462201
:1008DD00E50D6401450C7025E509640345086003C9
:1008ED00020986F50C750D027F01FE120D6B7F015D
:1008FD00120D0B7F02120DA07F02020D59E50D6442
:10090D0002450C702FE5094508706EF50C750D0349
:10091D00F50875090A7F01FE120CE37F02120D8F97
:10092D007F02120D467F01120CC77F02120CFA7F57
:10093D0002020D33E50D6403450C7022E5096403D5
:10094D0045087035F50C750D047F01FE120DA07F65
:10095D0001120D597F02120D6B7F02020D0BE5097D
:10096D0045087015F50C750D01F50875090A7F011F
:0A097D00FE120CD97F01120CBD22FE
:100DD200120BB9E50924FDFFE50834FFFE020BF210
:0A0DE200120BB9AF09AE08020BF2C4
:100D1F00E50924FDFFE50834FFFE120BBDAF09AE58
:040D2F0008020BF2B9
:0A0DEC00120BB9AF09AE08020BF2BA
:100C5A00E50D6401450C7003020DD2E50D640245F1
:100C6A000C7003020DE2E50D6403450C7003020DDE
:050C7A001F120DEC2229
:060DF6001208DD020C5A98
:030000000209876B
:0C098700787FE4F6D8FD75811B0209CED4
:100A1300C2D5EC30E709B2D5E4C39DFDE49CFCEEFE
:100A230030E715B2D5E4C39FFFE49EFE120A49C323
:100A3300E49DFDE49CFC8003120A4930D507C3E41E
:060A43009FFFE49EFE226D
:10099300020C7FE493A3F8E493A34003F68001F2EF
:1009A30008DFF48029E493A3F85407240CC8C33365
:1009B300C4540F4420C8834004F456800146F6DF34
:1009C300E4800B0102040810204080900CA0E47E18
:1009D300019360BCA3FF543F30E509541FFEE49329
:1009E300A360010ECF54C025E060A840B8E493A3F0
:1009F300FAE493A3F8E493A3C8C582C8CAC583CA1B
:100A0300F0A3C8C582C8CAC583CADFE9DEE780BED2
:010CBC000037
:100A4900BC000BBE0029EF8DF084FFADF022E4CC91
:100A5900F875F008EF2FFFEE33FEEC33FCEE9DEC5A
:100A6900984005FCEE9DFE0FD5F0E9E4CEFD22EDA0
:100A7900F8F5F0EE8420D21CFEADF075F008EF2FEA
:100A8900FFED33FD4007985006D5F0F222C398FDDB
:050A99000FD5F0EA2278
:00000001FF
