:030000000201F703
:03000300020207EF
:03000B00020230BE
:03001300020221C5
:1000300075A887758911758805758CD8758AFFD262
:100040008CB80103120130B801FD12004F80F81284
:1000500000561200CD22B90118BB03707F011203B4
:100060002D12030C7F021203011202D57902020342
:1000700043B90220BB0055EDFB7F011202CA1202F8
:10008000F67F021202E01202BF1203171203227956
:1000900003020343B90318BB03327F0112030112A9
:1000A00002D57F0212032D12030C7904020343BB15
:1000B000001AECFB7F011202E01202BF12031712BA
:1000C00003227F021202CA1202F6790122B9010D3F
:1000D000EB120104EB940312011A020343B9020B61
:1000E000EB120104EB12011A020343B9030DEB9466
:1000F00003120104EB12011A020343EB120104EB99
:1001000012011A2275F00A84F590D2941201E78543
:10011000F090D2951201E7C2952275F00A84F5A0FD
:10012000D2A41201E785F0A0D2A51201E7C2A52250
:10013000B901137F011202BF1203227F021202F6DD
:1001400012030C020343B902137F011202BF120310
:100150000C7F021202D512030C020343B903137F72
:10016000011202F612030C7F021202BF12032202D6
:1001700003437F011202D512030C7F021202BF1249
:10018000030C2275900075A000B901137F011202C3
:10019000CA12032D7F02120301120317020343B98F
:0401A00002137F01C6
:1001A4001202CA1203177F021202E012031702039B
:1001B40043B903137F011203011203177F021202D2
:1001C400CA12032D0203437F011202E01203177FB8
:1001D400021202CA120317227F011202E07F0212E6
:1001E40002E022758DD8758BF0D28E308EFDC28ED2
:1001F400C28F22780179017A007B0A7C0A7D14027D
:100204000030327A00B801081201837802020344F4
:1002140078017901ECFB1201DC12013032BC0A07CF
:100224007C147D280203447C0A7D1432C28C0AB8F3
:100234000171BA3234740324038BF0C2D7B5F002CF
:10024400800320D72174038BF0C2D7B5F00280035A
:1002540030D713B901087F011203220202B6B90391
:10026400057F021203220202B6BA64467A001B74A6
:100274000324038BF0C2D7B5F002800320D7217486
:10028400038BF0C2D7B5F002800330D713B901084D
:100294007F0112032D0202B6B903057F0212032D5A
:1002A4000202B6BA320C7A007F011202EB7F02120C
:1002B40002EB758CD8758AFFD28C32BF0105C2B0AF
:1002C400020343C2B122BF0105D2B0020343D2B13B
:1002D40022BF0105C2B4020343C2B522BF0105D245
:1002E400B4020343D2B522BF0105B2B4020343B240
:1002F400B522BF0105C2B6020343C2B722BF01053E
:10030400D2B6020343D2B722BF0105C2800203431F
:10031400C28122BF0105D280020343D28122BF01E0
:1003240005C282020343C28322BF0105D2820203B3
:1003340043D28322BF0105B282020343B283222245
:010344003286
:00000001FF
